:100000000C942A000C943C000C943C000C943C0092
:100010000C943C000C943C000C943C000C943C0070
:100020000C943C000C943C000C943C000C943C0060
:100030000C943C000C943C000C943C000C943C0050
:100040000C943C000C943C000C943C000C943C0040
:100050000C943C0011241FBECFE5D8E0DEBFCDBF1D
:1000600010E0A0E6B0E001C01D92A136B107E1F7B3
:100070000E9477000C949C000C94000010B880B98A
:1000800084EA86BF06B607FEFDCF81B1887F88303F
:10009000E1F70895982F9F5F24E893B926BF06B62D
:1000A00007FEFDCF81B1887F8034B9F7089590E0D5
:1000B000A82FB0E0119724EC09C026BF06B607FEB2
:1000C000FDCF83B1E05AFF4F80839F5FE92FF0E0BF
:1000D000EA17FB0794F384E886BF06B607FEFDCF58
:1000E00083B1A05ABF4F8C9384E986BF08958FEFE8
:1000F0008ABB80E80E943E0080EA0E944A008CE0B1
:100100000E94570020E048EC50E009C0EBBB88E8B3
:1001100093E1FA013197F1F70197D9F72F5FE22FB9
:10012000F0E0E05AFF4FE081EE2381F780E090E0BD
:0C013000089584E986BF0895F894FFCF7D
:00000001FF
